:100000000C9446000C945D000C945D000C945D0013
:100010000C945D000C945D000C945D000C945D00EC
:100020000C945D000C945D000C945D000C945D00DC
:100030000C945D000C945D000C945D000C945D00CC
:100040000C945D000C945D000C945D000C945D00BC
:100050000C945D000C945D000C945D000C945D00AC
:100060000C945D000C945D000C945D000C945D009C
:100070000C945D000C945D000C945D000C945D008C
:100080000C945D000C945D000C945D0011241FBE67
:10009000CFEFD0E4DEBFCDBF11E0A0E0B1E0E2EDF4
:1000A000F1E000E00BBF02C007900D92AE30B10747
:1000B000D9F70E9488000C94E7000C940000CF93BD
:1000C000DF9300D01F92CDB7DEB789837B836A832D
:1000D00089818A3031F48A819B81BC018DE00E9444
:1000E0005F0080EC90E0FC018081882F90E08072BE
:1000F00099270097B1F386EC90E02981FC012083D9
:1001000080E090E00F900F900F90DF91CF910895D5
:10011000CF93DF9300D000D01F92CDB7DEB781E23E
:1001200090E0FC01108282E290E02FEFFC0120833E
:1001300087E290E02FEFFC01208388E290E0FC0151
:10014000108280E290E0FC01808181708A8380E2ED
:1001500090E0FC01808182708B8380E290E0FC0162
:10016000808184708C8380E290E0FC0180818870C3
:100170008D8319828A81882319F489818F5F89830D
:100180008B81882319F489818F5F89838C818823EF
:1001900019F489818F5F89838D81882319F489817E
:1001A0008F5F89838A81882361F08B81882349F05E
:1001B0008C81882331F08D81882319F089818058C2
:1001C000898388E290E02981FC012083BACFF894EA
:0201D000FFCF5F
:0E01D20000000002000000005F0000000000BE
:00000001FF
